:060000000A128A110C280F
:10000800FE00030EF0000A08F1000A128A11A8285F
:100018000A128A110F280A128A11F3200A128A1169
:10002800FD00FA01FB01FC0183010A128A111C2858
:100038000A128A11CC200A128A116430F500F901DB
:10004800F7010A30F80000300A128A1165200A12F6
:100058008A11F6003E307606031D332834283928E5
:100068006430F800FC01FA01FB0105307C06031D31
:100078003E283F284228FC010A30F8000130F707E3
:1000880033307706031D49284A282728F7017808BE
:10009800790203185028512855288312031308148D
:1000A80058288312031308100130F90775087902DC
:1000B800031C5F2860282728F90127280A128A11BB
:1000C8000C28F4007403031D6A286B287028831217
:1000D800031306083F39A7287408031D74287528D8
:1000E800A6283F30831203130605F2003F3072063C
:1000F80003197F2880289B287D08031984288528D0
:100108009B288230F300DD30F200F20B8928F30BD4
:1001180089288E283F30831203130605F2003F30EA
:100128007206031998289928A628FD016B283F30E4
:100138000605F2003F307206031DA328A428A6284E
:100148000130FD003F3008000B1DAB28AC28C52846
:10015800831203130108083E81000130FA070318CF
:10016800FB0A0030FB0721307A064E3003197B0664
:10017800031DBF28C028C428FA01FB010130FC0771
:100188000B1171088A00700E8300FE0E7E0E0900A6
:100198008316031308108312031308100A128A1116
:1001A800DD200A128A110A128A11EA200A128A111B
:1001B80008008B170B1706308312031381000B11ED
:1001C8008B16831603138115811208003F3083169E
:1001D800031386053F308312031386040800013495
:02400E00FB3F76
:00000001FF
