:060000000A128A110C280F
:10000800FE00030EF0000A08F1000A128A11C9293D
:100018000A128A110F2883133D30FD000230FE00BA
:100028002530FF00323084000A128A11F9210A12A1
:100038008A11BD01BE01BF01FA01FB0183010A1249
:100048008A1126280A128A1130220A128A1132309D
:100058008400243083120313A0000A30A100831304
:100068000008A200040AA3002008840022088000D7
:10007800040AA00023088400A10B33280A30F200E8
:100088000030F3003C08A000A1012008F40021087A
:10009800F5000A128A11D0200A128A117208243E29
:1000A80084008313000883120313AE000A30F200A1
:1000B8000030F3003C08A000A1012008F40021084A
:1000C800F5000A128A1133210A128A117208243E95
:1000D80084008313000883120313AF000A30F20070
:1000E8000030F3003D08A000A1012008F400210819
:1000F800F5000A128A11D0200A128A117208243EC9
:1001080084008313000883120313B0000A30F2003E
:100118000030F3003D08A000A1012008F4002108E8
:10012800F5000A128A1133210A128A117208243E34
:1001380084008313000883120313B1003E080319D7
:10014800A628A728AA282F088038AF002E30F2004A
:100158000A128A118A210A128A113C308312031367
:100168003F02031CB828B928BC28BF010130BD07CD
:100178003C303D02031CC128C228C528BD010130FE
:10018800BC0718303C02031CCA28CB284228BC01F3
:1001980042280A128A110C28F701F31FD428D528FF
:1001A800DC28F209F309F20A0319F30A0130F7000F
:1001B800F51FDF28E028E728F409F509F40A0319F0
:1001C800F50A0130F706F801F901720873040319FA
:1001D800EE28EF2824290130F600FB28013003100F
:1001E800F20DF30DFF3E031DF3280130F607F31F50
:1001F800FE28FF28F22801300310F80DF90DFF3E04
:10020800031D002973087502031D0C297208740266
:10021800031C0F29102917297208F4027308031CFC
:10022800F503F502781401300310F30CF20CFF3ECD
:10023800031D18290130F602031D23292429FF284C
:1002480077080319282929292E29F809F909F80A0C
:100258000319F90A7908F3007808F2000800F70191
:10026800F51F372938293F29F409F509F40A031934
:10027800F50A0130F700F31F422943294829F209FA
:10028800F309F20A0319F30A7208730403194D29D2
:100298004E297B290130F6005A2901300310F20D4E
:1002A800F30DFF3E031D52290130F607F31F5D29A8
:1002B8005E29512973087502031D642972087402A6
:1002C800031C672968296E297208F4027308031C45
:1002D800F503F50201300310F30CF20CFF3E031D89
:1002E8006F290130F602031D7A297B295E297708D8
:1002F80003197F2980298529F409F509F40A0319C6
:10030800F50A7508F3007408F2000800F601F70111
:1003180076087207F30073088400831300088312B9
:10032800031388000430F300760A9C290310F30DA8
:10033800FF3E031D9A290508C33973048500F4306C
:10034800F4000130F5000130F4020030031CF5031D
:10035800F502740A031DB429750A031DB429B529C9
:10036800A7290130F6070318F70A0030F7077708BE
:10037800803AFF0080307F02031DC42904307602D2
:10038800031CC729C8298C2908000B1DCC29CD2995
:10039800EE29831203130108083E81000130FA0791
:1003A8000318FB0A0030FB0720307A064E30031989
:1003B8007B06031DE029E129ED293E080319E529FB
:1003C800E7290130E8290030BE00FA01FB010130BD
:1003D800BF070B1171088A00700E8300FE0E7E0E97
:1003E80009007E088A007F0882000A128A11F52116
:1003F8000A128A118000840A04087D060319003451
:10040800FF0A0319FE0AF929831603138801050850
:10041800C3398500831203130508C3398500831681
:10042800031306083F38860008008B170B178B1636
:10043800831603138112811506308312031381007A
:1004480008003F3406345B344F3466346D347D34F1
:1004580007347F346F340C340A128A1108220A12C6
:0E0468008A110A128A1119220A128A1108003A
:02400E00FB3F76
:00000001FF
