:060000000A128A11E62F2E
:100D760001343F308316031386040A128A11D026E3
:100D86000A128A1108003F3406345B344F34663445
:100D96006D347D3407347F346F3483160313880132
:100DA600831203138801831603130508C3398500CC
:100DB600831203130508C339850008007E088A00DC
:100DC6007F0882000A128A11E1260A128A1180001F
:100DD600840A04087D0603190034FF0A0319FE0A73
:100DE600E52EF401F50174087007F100710884001E
:100DF600831300088312031388000430F100740A79
:100E0600062F0310F10DFF3E031D042F0508C339FD
:100E160071048500F201F3010130F2070318F30AA9
:100E26000030F30701307302F43003197202031C19
:100E36001D2F1E2F0F2F0130F4070318F50A00305F
:100E4600F50700307502043003197402031C2C2FB9
:100E56002D2FF62E0800F1007108031D332F342FB5
:100E6600392F8312031306083F396B2F7103031DB5
:100E76003D2F3E2F6A2F0130FA070318FB0A003078
:100E8600FB07C9307A067B04031D4A2F4B2F6A2FB6
:100E9600FA01FB013F30831203130605F0003F30D1
:100EA60070060319572F582F5F2F7C0803195C2FE4
:100EB6005D2F5F2FFC01342F3F300605F0003F30D9
:100EC6007006031D672F682F6A2F0130FC003F3024
:100ED60008000A128A11BC260A128A118312031309
:100EE600B101B201AF01B001333084002030F60009
:100EF6000A30F70083130008F800040AF9007608A0
:100F0600840078088000040AF60079088400F70B4C
:100F16007D2F00300A128A112E270A128A11831297
:100F26000313AE003E302E06031D9A2F9B2FA22FD1
:100F36000130B1070318B20A0030B207CF2F3108CB
:100F460032040319A72FA82FC32F003032023230E4
:100F5600031931020318B02FB12FC32F0130AF0789
:100F66000318B00A0030B007003030020A30031907
:100F76002F02031CBF2FC02FCD2FAF01B001CD2FE5
:100F860000303202653003193102031CCB2FCC2FFF
:100F9600CD2FC02FB101B2012008AA002008AB0056
:100FA6002008AC002F08203E840083130008AD0003
:100FB6002A30F0000A128A11F4260A128A118C2F9E
:100FC6000A128A11002883133D30FD000630FE0008
:100FD600C630FF00333084000A128A11E5260A1251
:100FE6008A110A128A11BB260A128A11FC00FA011A
:0A0FF600FB0183010A128A116C2F1F
:02400E00FB3F76
:00000001FF
