:060000000A128A11E82F2C
:100AC6000134831603130615831203130615080053
:100AD6003F3406345B344F3466346D347D3407342A
:100AE6007F346F340A128A1164250A128A110A1297
:100AF6008A1180250A128A110800831603138801B9
:100B0600831203138801C330831603138505C3308C
:100B160083120313850508007E088A007F08820079
:100B26000A128A118F250A128A118000840A040883
:100B36007D0603190034FF0A0319FE0A932DF000FF
:100B46006400831603178C18A92DAA2DA32D7008EF
:100B5600831203178D003F30831603178C050C1480
:100B6600831203170C080800F100831603178C186C
:100B7600BD2DBE2DB82D7108831203178D00700888
:100B86008C003F30831603178C0583120313031062
:100B96008B1FCE2DCF2DD02D03148B138316031749
:100BA6000C1555308D00AA308D008C140C11831253
:100BB6000313031CDF2DE02DE12D8B1708007708AA
:100BC60078040319E72DE82D152E0130FB00F42DCE
:100BD60001300310F70DF80DFF3E031DEC2D01301B
:100BE600FB07F81FF72DF82DEB2D78087A02031D69
:100BF600FE2D77087902031C012E022E082E770897
:100C0600F9027808031CFA03FA0201300310F80C03
:100C1600F70CFF3E031D092E0130FB02031D142EA7
:100C2600152EF82D7A08F8007908F7000800F40167
:100C3600F50174087007F100710884008313000839
:100C46008312031388000430F100740A2C2E03105B
:100C5600F10DFF3E031D2A2E0508C33971048500D8
:100C6600F201F3010130F2070318F30A0030F3072B
:100C760001307302F43003197202031C432E442E12
:100C8600352E0130F4070318F50A0030F507003059
:100C96007502043003197402031C522E532E1C2EA7
:100CA6000800F401F5017008710403195B2E5C2E2F
:100CB600912E0130F600682E01300310F00DF10D73
:100CC600FF3E031D602E0130F607F11F6B2E6C2EC2
:100CD6005F2E01300310F40DF50DFF3E031D6D2E42
:100CE60071087302031D792E70087202031C7C2E94
:100CF6007D2E842E7008F2027108031CF303F302A2
:100D0600741401300310F10CF00CFF3E031D852E08
:100D16000130F602031D902E912E6C2E7508F100FF
:100D26007408F0000800F1007103031D9B2E9C2E31
:100D3600A12E8312031306083F39E02E7108031D06
:100D4600A52EA62EDF2E3F30831203130605F000D4
:100D56003F3070060319B02EB12ED42E7C0803192D
:100D6600B52EB62ED42EF201F3010130F207031888
:100D7600F30A0030F30701307302F43003197202EC
:100D8600031CC62EC72EB82E3F308312031306054A
:100D9600F0003F3070060319D12ED22EDF2EFC0153
:100DA6009C2E3F300605F0003F307006031DDC2EFA
:100DB600DD2EDF2E0130FC003F3008000A128A11BA
:100DC60075250A128A1138308400243083120313E1
:100DD600A0000A30A10083130008A200040AA300A1
:100DE6002008840022088000040AA000230884004A
:100DF600A10BEE2EB50100300A128A11A2250A12A5
:100E06008A1183120313B30001300A128A11A22534
:100E16000A128A1183120313B4003408A000A10138
:100E26003308A200A3012208A300A201200822047D
:100E3600B60021082304B700360A031D272F370AF8
:100E46000319262F272F302F27303702103003198A
:100E56003602031C2F2F302F322FB601B701013077
:100E660083120313B5071A303506031D3B2F3C2F9B
:100E76004E2FB5010130B6070318B70A0030B70781
:100E860027303702103003193602031C4B2F4C2F24
:100E96004E2FB601B701E830F0000330F1003708F5
:100EA600F3003608F2000A128A1154260A128A1131
:100EB6007008243E84008313000883120313AE00D7
:100EC6000A30F7000030F8006430F0000030F1001E
:100ED6003708F3003608F2000A128A1154260A125D
:100EE6008A117108FA007008F9000A128A11E225BF
:100EF6000A128A117708243E84008313000883129D
:100F06000313AF000A30F7000030F8000A30F00093
:100F16000030F1003708F3003608F2000A128A1191
:100F260054260A128A117108FA007008F9000A128A
:100F36008A11E2250A128A117708243E8400831357
:100F4600000883120313B0000A30F7000030F800DF
:100F56003708FA003608F9000A128A11E2250A1241
:100F66008A117708243E8400831300088312031332
:100F7600B1002E30F0000A128A111A260A128A11BE
:100F860000300A128A1196260A128A118312031356
:100F9600B2003B303206031DD12FD22F322F370835
:100FA600F00000300A128A11B7250A128A1183123C
:100FB60003133608F00001300A128A11B7250A1207
:100FC6008A11322F0A128A11002883134230FD003B
:100FD6000530FE006B30FF00383084000A128A119B
:100FE60093250A128A110A128A1163250A128A1196
:0A0FF600FC0083010A128A11E12EAB
:02400E00FB3F76
:00000001FF
