:100000000A128A11ED2FFF1B0D2883137F18831707
:100010000008840A0319FF0A080000308A00040857
:10002000840A820700345234693467346834743483
:1000300020345334633472346F346C346C34693428
:060040006E346734003449
:100D04008312031389142130F000F00B872E831211
:100D140003138910C730F0008F2EF00B8E2E922E05
:100D2400932E08007E088A007F0882000A128A1126
:100D340094260A128A118000840A04087D06031985
:100D44000034FF0A0319FE0A982E5F345F345F34BF
:100D540047346F346F34643420344D346F34723418
:100D64006E3469346E3467345F345F345F34003416
:100D7400F5007508031DBF2EC02EC42E7408803ED6
:100D8400F600C72E7408C03EF60076080A128A11CF
:100D9400CE260A128A110800F300831203130911E4
:100DA4000910730888000A128A1182260A128A110D
:100DB4000D30F200FB30F100F10BDE2EF20BDE2ED3
:100DC400E32E0800F30083120313091509107308B6
:100DD40088000A128A1182260A128A110D30F20042
:100DE400FB30F100F10BF42EF20BF42EF92E080077
:100DF4000F2F7508FF00740884000A128A1103205B
:100E04000A128A110A128A11E4260A128A1101307E
:100E1400F4070318F50A0030F50775088312031365
:100E2400FF00740884000A128A1103200A128A112E
:100E3400003A031D1E2F1F2FFB2E080083160313D9
:100E44008801091109108910831203138910823053
:100E5400F500DD30F400F40B2D2FF50B2D2F322F80
:100E64008312031309110910303088000A128A1101
:100E740082260A128A112130F5007630F400F40B30
:100E8400412FF50B412F00003030831203138800EB
:100E94000A128A1182260A128A11C730F400522FCC
:100EA400F40B512F552F562F303083120313880023
:100EB4000A128A1182260A128A1138300A128A11F9
:100EC400CE260A128A110C300A128A11CE260A1270
:100ED4008A1106300A128A11CE260A128A110130AA
:100EE4000A128A11CE260A128A110D30F500FB303F
:100EF400F400F40B7B2FF50B7B2F802F08000630BA
:100F0400831603139F000A128A1120270A128A11DA
:100F1400363084002030F7001330F80083130008C3
:100F2400F900040AFA007708840079088000040AAA
:100F3400F7007A088400F80B902FF40100300A12AD
:100F44008A11BA260A128A110130F4008030F500A1
:100F54000A128A11FA260A128A11F40101300A12BD
:100F64008A11BA260A128A112030F4000030F500E2
:100F74000A128A11FA260A128A1101308312031303
:100F8400C9071A304906031DC82FC92FAF2FC9013D
:100F94003108B3001130B4000030B5003408FF3E0E
:100FA400203E840083130008FF003408203E8400A0
:100FB4007F088000FF30B4070318B50AFF30B50777
:100FC400B51FE52FE62FD02F3308A000B201AF2FB5
:100FD4000A128A11002883134930FD000630FE00EE
:100FE400A730FF00363084000A128A1198260A12AC
:0C0FF4008A11C90183010A128A11812FA1
:02400E00723FFF
:00000001FF
