:060000000A128A110C280F
:10000800FE00030EF0000A08F1000A128A11EE2819
:100018000A128A110F2883133C30FD000130FE00BC
:100028000D30FF00323084000A128A11CE200A12E5
:100038008A11BC01BD0183010A128A1123280A1200
:100048008A11DD200A128A11003083120313B100CD
:100058000030B0000030AF000030AE003230840015
:100068002030F8000A30F90083130008FA00040A67
:10007800FB00780884007A088000040AF8007B08EE
:100088008400F90B38282108AA002208AB002308AD
:10009800AC002408AD002A30F2000A128A11902020
:1000A8000A128A11013083120313AE0700300318B5
:1000B8000130AF07003003180130B00700300318D3
:1000C8000130B1072F032E0430043104031D6D28BD
:1000D8006E288028003083120313B1000030B0006E
:1000E8000030AF000030AE00803086060130BC071B
:1000F8000318BD0A0030BD070530831203133C0600
:100108003D04031D882889284F288501880163003C
:100118004F280A128A110C28F601F701760872078F
:10012800F300730884008313000883120313880004
:100138000430F300760AA2280310F30DFF3E031DD6
:10014800A0280508C33973048500F401F5010130BE
:10015800F4070318F50A0030F50701307502F4308A
:1001680003197402031CB928BA28AB280130F60712
:100178000318F70A0030F707003077020430031934
:100188007602031CC828C928922808007E088A001D
:100198007F0882000A128A11CA200A128A11800076
:1001A800840A04087D0603190034FF0A0319FE0AAD
:1001B800CE288316031386018312031386010A12BD
:1001C8008A11FE200A128A110A128A1117210A12AC
:1001D8008A1108008B1CF128F228F72883120313D0
:1001E800BC01BD018B1071088A00700E8300FE0EE1
:1001F8007E0E0900831603138801831203138801F6
:10020800C330831603138505C33083120313850592
:1002180008003F3406345B344F3466346D347D3423
:1002280007347F346F348B170B170B168B1083161C
:08023800031301130614080072
:02400E00FB3F76
:00000001FF
