:060000000A128A110C280F
:10000800FE00030EF0000A08F1000A128A11F12915
:100018000A128A110F280A128A1119220A128A1141
:10002800FB00FA0183010A128A11E72800308A00CE
:100038000408840A8207003453345734493454344A
:1000480043344834203432342034503472346534E4
:100058006534733473346534643421340A340D34AC
:1000680000345334573449345434433448342034F6
:100078003134203450347234653473347334653415
:10008800643421340A340D34003453345734493439
:1000980054344334483420343334203450347234A4
:1000A8006534733473346534643421340A340D345C
:1000B80000345334573454344934433448342034A6
:1000C80034342034503472346534733473346534C2
:1000D800643421340A340D340034553441345234F4
:1000E8005434203454344534533454342034523442
:1000F80055344E340D340A3400340030831203135F
:10010800A4000030A3000030A2000030A100750850
:10011800740473047204031992289328DE280130AA
:10012800A500A1280130A0000310F20DF30DF40D75
:10013800F50DA00B98280130A507F51FA428A528C0
:1001480096280130A0000310A10DA20DA30DA40D47
:10015800A00BA72875087902031DBC28740878022B
:10016800031DBC2873087702031DBC287208760299
:10017800031CBF28C028CF287208F6027308031C86
:10018800730FF7027408031C740FF8027508031C38
:10019800750FF902211401300310F50CF40CF30C5F
:1001A800F20CFF3E031DD0280130A502031DDD28F7
:1001B800DE28A5282408F5002308F4002208F30007
:1001C8002108F20008000A128A11DA210A128A119B
:1001D8005230F3000A128A11BE210A128A11003025
:1001E8000A128A1137210A128A1183120313AE00E8
:1001F8003E302E06031D012902290A291630F30074
:100208000A128A11BE210A128A11F3283D302E06DD
:10021800031D0F29102918290130F3000A128A1129
:10022800BE210A128A11F3283B302E06031D1D2910
:100238001E2926292A30F3000A128A11BE210A1221
:100248008A11F32837302E06031D2B292C29F32871
:100258003E30F3000A128A11BE210A128A11F328CD
:100268000A128A110C28F3007303031D3C293D2947
:1002780042298312031306083F3985297308031D91
:100288004629472984293F30831203130605F200C3
:100298003F30720603195129522979297B0803191D
:1002A800562957297929F401F5010130F407031873
:1002B800F50A0030F5077508803AFF0081307F02A3
:1002C800031D6829F4307402031C6B296C29592911
:1002D8003F30831203130605F2003F3072060319FC
:1002E800762977298429FB013D293F300605F2004C
:1002F8003F307206031D8129822984290130FB00C1
:100308003F30080083160313181583120313981738
:1003180018162608AA002708AB002808AC002908E8
:10032800AD0004300310AA0DAB0DAC0DAD0DFF3EB2
:10033800031D96292D08F5002C08F4002B08F3005E
:100348002A08F2000130F9003130F8002D30F700AA
:100358000030F6000A128A1181200A128A117208E6
:10036800FF3E83160313990098168C168312031305
:100378008C120800CD29730884000A128A111A20E9
:100388000A128A110A128A1106220A128A110130E7
:10039800F307730884000A128A111A200A128A11B4
:1003A800003A031DD829D929BF2908008B170B1734
:1003B8000A128A1110220A128A11003083120313BA
:1003C800A9000030A8002530A7008030A6000A1236
:1003D8008A1186210A128A110800831203138C1EBF
:1003E800F629F729FF29981CFA29FB29FC29181254
:1003F8001A08FA008C1271088A00700E8300FE0E2B
:100408007E0E0900F200831203130C1E0C2A0D2A1B
:10041800072A7208990008003F30831603138604E0
:0C0428003F3083120313860508000134E6
:02400E00FB3F76
:00000001FF
