:060000000A128A110C280F
:10000800FE00030EF0000A08F1000A128A114528C2
:100018000A128A110F280A128A1168200A128A11F4
:10002800F50083010A128A1119280A128A1153202D
:100038000A128A116430F200F401F3010130F30767
:1000480065307306031D29282A282228F301013068
:10005800F4077508740203183228332837288312E6
:10006800031308143A288312031308107208740241
:10007800031C3F2840282228F40122280A128A114A
:100088000C288B1C482849284B286430F5008B1015
:1000980071088A00700E8300FE0E7E0E090083161A
:1000A800031308108312031308100A128A115F2021
:1000B8000A128A1108008B170B170B168B10831660
:0A00C800031301130614080032347C
:00000001FF
