:060000000A128A110C280F
:10000800FE00030EF0000A08F1000A128A11B72B4D
:100018000A128A110F28FA01FB0183010A128A11B8
:10002800852B831203132D08B7008030B7052D08E0
:10003800AE002E07BE00AC1F2228232824283E1419
:100048003E0803192828292839283E0A031D2D2887
:100058002E2836280030AD000030AC000030AB0050
:100068000030AA00AC17AD0141280030AD000030C7
:10007800AC000030AB000030AA0029088039B70670
:100088002908AE002E07BF00A81F4B284C284D2872
:100098003F143F0803195128522862283F0A031DBC
:1000A800562857285F280030A9000030A8000030E3
:1000B800A7000030A600A817A9016A280030A900E7
:1000C8000030A8000030A7000030A6002908280446
:1000D80027042604031D7128722889280030AD00E2
:1000E8000030AC000030AB000030AA008030AC0417
:1000F8007F30AD043708AD042D08A9002C08A800EE
:100108002B08A7002A08A600DE293E08031D8D2813
:100118008E2897280030A9000030A8000030A700DA
:100128000030A600DE293E08AE00AF012F08B1005E
:100138003F082E02B000031CB10330087F3EB80010
:1001480031080318013E003EB9002D08B6002C08FE
:10015800B5002B08B4002A08B3000030AD00003009
:10016800AC000030AB000030AA000030BD00003009
:10017800BC000030BB000030BA00BF010B293F08AB
:100188000319C728C828E8280130AE000310B30DAA
:10019800B40DB50DB60DAE0BCA280130AE00031074
:1001A800AA0DAB0DAC0DAD0DAE0BD328BD1FDD28D0
:1001B800DE28DF282A140130AE000310BA0DBB0D6B
:1001C800BC0DBD0DAE0BE12829083602031DF6282B
:1001D80028083502031DF62827083402031DF628CF
:1001E80026083302031CF928FA2809293D1726088E
:1001F800B3022708031C270FB4022808031C280F82
:10020800B5022908031C290FB6020130BF071A30AE
:100218003F02031C10291129C32836083504340469
:10022800330403191829192938293A1438290130AF
:10023800AE000310AA0DAB0DAC0DAD0DAE0B1D2914
:10024800BD1F2729282929292A140130AE000310A7
:10025800BA0DBB0DBC0DBD0DAE0B2B29FF30B80779
:100268000318B90AFF30B907AC1F3B293C291B29E1
:10027800BF01BD1F402941295D29FF303A05AE0065
:10028800FF303B05AF00FF303C05B0007F303D0537
:10029800B100310830042F042E04031954295529BC
:1002A80058290130BF005D292A1C5B295C295D297A
:1002B80055293F0803196129622993290130AA07A2
:1002C800003003180130AB07003003180130AC07C9
:1002D800003003180130AD072D1C732974299329A8
:1002E8002A08AE002B08AF002C08B0002D08B1007A
:1002F8000130B200310DB10CB00CAF0CAE0CB20B2A
:100308007E293108AD003008AC002F08AB002E085C
:10031800AA000130B8070318B90A0030B90739082C
:10032800803AFF0080307F02031D9C29FF3038028D
:10033800031C9F29A029AE29FF3083120313B8009C
:100348000030B9000030AD000030AC000030AB0028
:100358000030AA00831203133908803AFF00803066
:100368007F02031DB929013038020318BC29BD29B1
:10037800CA2983120313B801B9010030AD00003057
:10038800AC000030AB000030AA00B70183120313A1
:100398003808BE003E1CD129D229D429AC17D62949
:1003A8007F30AC053E08AE0003102E0CAD003708B8
:1003B800AD048028080083120313A0002008031945
:1003C800E629E729FB29F51FEA29EB29FB29720908
:1003D800A2007309A3007409A4007509A500A20A64
:1003E8000319A30A0319A40A0319A50A032A7508FD
:1003F800A5007408A4007308A3007208A200750879
:10040800740473047204031D0A2A0B2A142A003088
:10041800F5000030F4000030F3000030F200942AB8
:100428009630A100222A0130A10701300310A50C43
:10043800A40CA30CA20CFF3E031D1A2AFE302505AE
:10044800031D272A282A172A422A0130A10701302A
:10045800A207003003180130A30700300318013049
:10046800A407003003180130A50701300310A50CBC
:10047800A40CA30CA20CFF3E031D3A2AFF3025054D
:10048800031D472A482A292A542A0130A10201308B
:10049800F6000310A20DA30DA40DA50DF60B4D2A11
:1004A800A41B572A582A5E2A0230210203185D2A03
:1004B8005E2A492A2118612A622A6A2AFF30A2057F
:1004C800FF30A3057F30A405FF30A5050310A10C5C
:1004D8002108F600F701F801F90118300310F60DAC
:1004E800F70DF80DF90DFF3E031D722A7608A204D8
:1004F8007708A3047808A4047908A5042008031938
:10050800862A872A8C2AF51F8A2A8B2A8C2AA517DD
:100518002508F5002408F4002308F3002208F20057
:100528000800031083120313420D430DC900490844
:10053800031D9F2AA02AA92A0030C3000030C20048
:100548000030C1000030C0000A2B4008C400410838
:10055800C5004208C6004308C7001F300310C70C77
:10056800C60CC50CC40CFF3E031DB22A4408C800C3
:10057800C217FF30C005FF30C105FF30C20500308B
:10058800C3059630C902C91FCA2ACB2AE32A4908DB
:10059800803A973E0318D12AD22AD32AA02A0130BA
:1005A8000310C30CC20CC10CC00CFF3E031DD42A9F
:1005B8000130C907031DE12AE22AD32AFA2A20308A
:1005C8004902031CE82AE92AF52AA02A0130C400B6
:1005D8000310C00DC10DC20DC30DC40BEC2A0130B0
:1005E800C9024908031DF92AFA2AEA2A4808031900
:1005F800FE2AFF2A0A2BC009C109C209C309C00A79
:100608000319C10A0319C20A0319C30A080083128D
:1006180003134A08F2004B08F300F401F501003017
:100628000A128A11DF210A128A117508831203132C
:10063800AD007408AC007308AB007208AA00413022
:10064800A9002330A800AE30A7001430A6000A1273
:100658008A1115200A128A11831203132908C3006C
:100668002808C2002708C1002608C0000A128A11FB
:1006780095220A128A11831203134008CC004C08F1
:100688000A128A110A240A128A110800F40074084E
:1006980083120313A00003300310A00DFF3E031DB7
:1006A800502B1F08C73920049F001F151F195D2BE9
:1006B8005E2B5A2B831603131E0883120313A00004
:1006C80006300310A00CFF3E031D652B2008A10077
:1006D800A2011E08A300A4010310A30DA40D03107A
:1006E800A30DA40D21082304A50022082404A600B4
:1006F8002508F5002608F6007608F3007508F200CC
:1007080008000A128A11DA230A128A11FF308312AA
:100718000313CD00FF30CE0000300A128A114A239D
:100728000A128A11730883120313D0007208CF00CB
:100738004E085006031DA22B4D084F060319A52B82
:10074800A62B902B5008CE004F08CD005008CB00A8
:100758004F08CA000A128A110B230A128A11902B19
:100768000A128A110C280B1DBA2BBB2BD32B831210
:1007780003130108083E81000B110130FA076430A9
:100788007A02031CC82BC92BCA2BFA017B087A02F0
:100798000318CF2BD02BD22B0814D32B0810710899
:1007A8008A00700E8300FE0E7E0E09000A128A115E
:1007B800EA230A128A110A128A11F7230A128A11E5
:1007C8000A128A1103240A128A1108008B170B17C0
:1007D8008B160B11831603138112811506308312B1
:1007E800031381000800831603131F1383120313D6
:1007F8009F171F131F14831603139F0108008316E6
:10080800031308108312031308100800F20072087B
:04081800FB000800D9
:02400E00FB3F76
:00000001FF
