:060000000A128A110C280F
:10000800FE00030EF8000A08F9000A128A111928DE
:100018000A128A110F28F001F101F201F301F4012B
:10002800F50183010A128A11C2280B1D1C281D28FC
:100038003628831203130108083E81000130F407B3
:100048000318F50A0030F507213074064E300319FD
:100058007506031D302831283528F401F5010130D3
:1000680088060B11831203130C1C3B283C285A28C2
:100078000E08DE3EF6000F080318013E0B3EF7009F
:1000880076088E0077088F000130F2070318F30A0C
:100098000030F307513072067304031D54285528A5
:1000A8005928F201F301023088060C108C1C5D28D7
:1000B8005E2872280130F0070318F10A0030F107B2
:1000C800213070064E3003197106031D6C286D2807
:1000D8007128F001F101043088068C1079088A0033
:1000E800780E8300FE0E7E0E0900F8308316031387
:1000F8008805F8308312031388048B170B170A122C
:100108008A11B5200A128A110A128A1193200A123A
:100118008A110A128A11A5200A128A11080083126C
:10012800031390121012901190100C1083160313E1
:100138000C148312031310140B308F00DC308E0064
:100148000800831603138C14831203138C10F930E0
:1001580083160313920083120313121592101210C0
:1001680008008B16831603138112063083120313BB
:1001780081000B1183160313811508000A128A11D6
:0E01880079200A128A11C7280A128A110C283F
:02400E00FB3F76
:00000001FF
