:060000000A128A11FC2F18
:100EC80083160313880183120313880108000A128A
:100ED8008A1164270A128A11F501F6010030F4001C
:100EE8000030F3000030F2000030F1000130F1076B
:100EF800003003180130F207003003180130F307FF
:100F0800003003180130F40751307106C33003195B
:100F1800720673047404031D922F932F7A2F0030E6
:100F2800F4000030F3000030F2000030F1007608E1
:100F3800803AFF0080307F02031DA42F083075021D
:100F48000318A72FA82FB42F031483120313080D17
:100F580088000130F5070318F60A0030F6077A2FE3
:100F68007608803AFF0080307F02031DBD2F1030C5
:100F780075020318C02FC12FC82F83120313080846
:100F8800F00070078800AD2F7608803AFF008030A7
:100F98007F02031DD12F183075020318D42FD52FC7
:100FA800DE2F831203130808F0000310700C80383A
:100FB8008800AD2F7608803AFF0080307F02031D3D
:100FC800E72F203075020318EA2FEB2FF32F831237
:100FD80003130808F0000310700C8800AD2FF5010A
:100FE800F6018312031388017A2F0A128A11002846
:080FF80083010A128A116B2F1C
:02400E00FA3F77
:00000001FF
