:100000000A128A11E32F00308A000408840A82074A
:1000100000343134313431343134303430343034EC
:1000200030340034503461347334733457346F34A3
:10003000723464343A342034203420342034203470
:1000400020342034003444346534763469346334E5
:10005000653420344C346F3463346B346534643429
:10006000203420342034003443346F346E347434FC
:100070006134633474342034413464346D3469340D
:100080006E34203420342034003449346E347634D5
:1000900061346C3469346434203445346E347434DF
:1000A00072347934203420342034003443346F34B3
:1000B00072347234653463347434203445346E34AD
:1000C0007434723479342034203420340034413490
:1000D0006334633465347334733420344734723496
:1000E00061346E3474346534643420342034003424
:1000F00020344C3465346634743421342034203454
:0E0100002034203420342034203420340034C5
:1009FE00013405347D0808008316031306083F38BA
:100A0E0086008312031306083F39860008008316FA
:100A1E0003138801091189100A128A11A4260A12D9
:100A2E008A1108000A128A1103250A128A110A1263
:100A3E008A110E250A128A110800F500F0017408B9
:100A4E000A128A116C250A128A11F001F00A750831
:100A5E000A128A116C250A128A110800F00101305F
:100A6E000A128A116C250A128A11F4010130F40758
:100A7E0032307402031C442D452D3D2D08000A30E2
:100A8E00F4008030F5000A128A118C250A128A11A0
:100A9E00C030F4005F300A128A1124250A128A111E
:100AAE0008001B30F4008030F5000A128A118C25E4
:100ABE000A128A112C30F400C030F5000A128A1185
:100ACE008C250A128A116A2D0800F3007018702DF9
:100ADE00742D831203130915772D83120313091135
:100AEE00730888008914A630F100F10B7C2D0000EC
:100AFE008312031389101B30F2009E30F100F10BAC
:100B0E00862DF20B862D00000800F00175080A12E2
:100B1E008A116C250A128A11A42DF001F00A7408AC
:100B2E0084000A128A1103200A128A110A128A11EB
:100B3E006C250A128A110130F407740884000A1217
:100B4E008A1103200A128A11003A031DAF2DB02D0F
:100B5E00942D08000A128A1119250A128A110A12F6
:100B6E008A1146250A128A110A128A1101250A12C1
:100B7E008A11003A0319C42DC52DDD2D01300A123C
:100B8E008A11FB260A128A11FA000A128A11E62528
:100B9E000A128A117A080A128A1161260A128A1119
:100BAE000A128A115F270A128A11BB2D0A128A11A4
:100BBE0058250A128A11BB2D0A128A110028831297
:100BCE0003132108F7002008F600A00A0319A10A52
:100BDE0027307702103003197602031CF72DF82DFB
:100BEE001F2EA001A1017B080319FE2D002E01303E
:100BFE00012E0030FB0008307C020318072E082E51
:100C0E001F2E7B08031D0C2E0D2E122E2030F800E9
:100C1E000030F900162E5F30F8000030F9007C0825
:100C2E00C03EF40078080A128A1124250A128A118D
:100C3E000800F401F501292E0130F4070318F50A16
:100C4E000030F5077408700784000A128A11032019
:100C5E000A128A11003A0319352E362E4B2E7408BD
:100C6E007107F2007208840083130008F300740801
:100C7E00700784000A128A1103200A128A11730661
:100C8E0003194A2E4B2E232E7408700784000A1265
:100C9E008A1103200A128A11F20074087107F300F8
:100CAE0073088400831300087202F000F101031C24
:100CBE00F1030800F8003E3078060319672E682EFF
:100CCE006E2E3D307806031D6D2E6E2EA32E3E30F9
:100CDE0078060319732E742E792E3130F6000030FB
:100CEE00F7007D2E3030F6000030F7007C08223EF3
:100CFE0084007608831380007C08C03EF4002A30FE
:100D0E000A128A1124250A128A110130FC07831255
:100D1E000313A001A1010130FB0008307C0203186F
:100D2E00992E9A2EA32E7C08C03EF4005F300A1234
:100D3E008A1124250A128A110800C330F500CD301D
:100D4E00F400F40BA82EF50BA82EF00133300A1286
:100D5E008A116C250A128A111B30F5009E30F400A0
:100D6E00F40BB72EF50BB72E0000F00133300A123C
:100D7E008A116C250A128A11A630F400F40BC52EC6
:100D8E000000F00133300A128A116C250A128A1102
:100D9E00D02ED12E0000F00138300A128A116C25A7
:100DAE000A128A11A630F400F40BDB2E0000F001BB
:100DBE0001300A128A116C250A128A110430F500CC
:100DCE003D30F400F40BE92EF50BE92EEE2EF0017A
:100DDE000C300A128A116C250A128A11A630F40000
:100DEE00F40BF72E00000800F3007308031D002F0C
:100DFE00012F062F8312031306083F395E2F73034C
:100E0E00031D0A2F0B2F5D2F3F3083120313060590
:100E1E00F0003F3070060319152F162F352F2B08B3
:100E2E0003191A2F1B2F352F0230F2004530F10017
:100E3E00A930F000F00B212FF10B212FF20B212FF7
:100E4E00282F3F30831203130605F0003F30700643
:100E5E000319322F332F5D2FAB01012F3F300605C3
:100E6E00F0003F307006031D3D2F3E2F5D2F2B08E7
:100E7E00031D422F432F5D2F0230F2004530F1004B
:100E8E00A930F000F00B492FF10B492FF20B492F2F
:100E9E00502F3F30831203130605F0003F307006CB
:100EAE00031D5A2F5B2F5D2F0130AB003F30080022
:100EBE0008307C06031D642F652FE22F8312031367
:100ECE00AA010130F0002230F1000A128A11202608
:100EDE000A128A1170087104031D762F772F8A2F3C
:100EEE004E30F4008030F5000A128A118C250A1259
:100EFE008A115F30F400C030F5000A128A118C2579
:100F0E000A128A11892F0130FD023D30F400803023
:100F1E00F5000A128A118C250A128A11C030F400CB
:100F2E007D08303E0A128A1124250A128A11703069
:100F3E00F400C130F5000A128A118C250A128A11AA
:100F4E000030F9000030F8000030F7000030F600F5
:100F5E007908031DC22F03307802031DBE2F0D30FA
:100F6E007702031DBE2F40307602031DBE2F031CD9
:100F7E00C12FC22FC32FD22F0130F6070030031816
:100F8E000130F707003003180130F807003003185E
:100F9E000130F907AF2FFC010A128A1135250A120A
:100FAE008A117D080319DC2FDD2FE22F0A128A1118
:100FBE0046250A128A1108000A128A11FF240A1203
:100FCE008A11AB000A128A1100250A128A11FD003D
:100FDE00A001A101A201A301A401A501A601A701DF
:100FEE00A801A901AA01FB01FC0183010A128A11C1
:020FFE00B12D13
:02400E00FB3F76
:00000001FF
