:060000000A128A11F02F24
:100CEE0001348316031388018312031388018316BC
:100CFE00031306083F3886000800AA308312031338
:100D0E00080603198B2E8C2E912EAA30F00000307F
:100D1E00F100952E5530F0000030F100700888007B
:100D2E000800F03083120313080603199F2EA02E1D
:100D3E00A52EF030F0000030F100A92E0F30F0009B
:100D4E000030F100700888000800CF2E03148312C3
:100D5E000313080D88000130F90708307902031CCF
:100D6E00B92EBA2ED72EF9010130FA00D72E8312E2
:100D7E0003130808F000700788000130F9070830E7
:100D8E007902031CCB2ECC2ED72EF901FA01D72EC9
:100D9E007A08003A0319AD2E013A0319BE2ED72E4A
:100DAE000800F2007208031DDD2EDE2EE32E8312E4
:100DBE00031306083F391A2F7203031DE72EE82E80
:100DCE00192F3F30831203130605F0003F307006D3
:100DDE000319F22EF32E0E2F7D080319F72EF82E7F
:100DEE000E2F8230F100DD30F000F00BFC2EF10BF7
:100DFE00FC2E012F3F30831203130605F0003F3007
:100E0E00700603190B2F0C2F192FFD01DE2E3F300C
:100E1E000605F0003F307006031D162F172F192FF1
:100E2E000130FD003F300800652F031483120313B9
:100E3E00080D88000130FB0708307B02031C282FA9
:100E4E00292F732FFB010130FC00732F8312031324
:100E5E000808F000700788000130FB0708307B029D
:100E6E00031C3A2F3B2F732FFB010230FC00732F14
:100E7E00831203130808F0000310700C80388800EA
:100E8E000130FB0708307B02031C4E2F4F2F732FB0
:100E9E00FB010330FC00732F831203130808F000CC
:100EAE000310700C88000130FB0708307B02031C16
:100EBE00612F622F732FFB01FC01732F7C08003A08
:100ECE0003191C2F013A03192D2F033A03193F2F33
:100EDE00013A0319532F732F08000A128A1178262C
:100EEE000A128A11F501F301F40101300A128A1176
:100EFE00D8260A128A11F6003F3076060319882F7B
:100F0E00892FB12F3E307606031D8E2F8F2F922FF5
:100F1E000130F500AC2F3D307606031D972F982F2C
:100F2E009B2F0230F500AC2F3B307606031DA02F11
:100F3E00A12FA42F0330F500AC2F37307606031DFA
:100F4E00A92FAA2FAC2F0430F500831203138801AA
:100F5E00F301F4010130F3070318F40A0030F4072B
:100F6E0051307306C33003197406031DBF2FC02FF3
:100F7E007C2FF301F401DF2F0A128A111B270A12AC
:100F8E008A117C2F0A128A11AC260A128A117C2F22
:100F9E000A128A1184260A128A117C2F0A128A11C9
:100FAE0098260A128A117C2F8312031388017C2F34
:100FBE007508013A0319C32F033A0319C92F013AD1
:100FCE000319CF2F073A0319D52FDB2F0A128A11D7
:100FDE0000280A128A1177260A128A11FD00F701DB
:100FEE00F801F901FA01FB01FC0183010A128A11D1
:020FFE00742F4E
:02400E00FB3F76
:00000001FF
