:060000000A128A11EE2F26
:100D06000A128A1189260A128A1108008316031309
:100D160088010508C3398500831203130508C33902
:100D2600850008003F3406345B344F3466346D3436
:100D36007D3407347F346F34083408347E088A00E3
:100D46007F0882000A128A11A1260A128A118000DF
:100D5600840A04087D0603190034FF0A0319FE0AF3
:100D6600A52EF401F50174087007F10071088400DE
:100D7600831300088312031388000430F100740AF9
:100D8600C62E0310F10DFF3E031DC42E0508C33900
:100D960071048500F430F2000130F3000130F202F4
:100DA6000030031CF303F302720A031DDE2E730ADE
:100DB600031DDE2EDF2ED12E0130F4070318F50AAF
:100DC6000030F5077508803AFF0080307F02031D6A
:100DD600EE2E04307402031CF12EF22EB62E0800FD
:100DE600F501F31FF72EF82EFF2EF209F309F20A8A
:100DF6000319F30A0130F500F11F022F032F082F04
:100E0600F009F109F00A0319F10A700871040319CF
:100E16000D2F0E2F3B2F0130F4001A2F0130031037
:100E2600F00DF10DFF3E031D122F0130F407F11FE7
:100E36001D2F1E2F112F71087302031D242F7008FA
:100E46007202031C272F282F2E2F7008F20271081A
:100E5600031CF303F30201300310F10CF00CFF3E08
:100E6600031D2F2F0130F402031D3A2F3B2F1E2F97
:100E7600750803193F2F402F452FF209F309F20A8F
:100E86000319F30A7308F1007208F00008000A1249
:100E96008A1183260A128A11333084002030F60024
:100EA6000C30F70083130008F800040AF9007608EE
:100EB600840078088000040AF60079088400F70B9D
:100EC600552F83120313B201B001B1010C30F000AB
:100ED6000030F1003208F600F7017608F2007708D4
:100EE600F3000A128A11F3260A128A117008203EAC
:100EF60084008313000883120313AC000C30F00047
:100F06000030F1003208013EF200003003180130D3
:100F1600F3000A128A11F3260A128A117008203E7B
:100F260084008313000883120313AD000C30F00015
:100F36000030F1003208023EF200003003180130A2
:100F4600F3000A128A11F3260A128A117008203E4B
:100F560084008313000883120313AE000C30F000E4
:100F66000030F1003208033EF20000300318013071
:100F7600F3000A128A11F3260A128A117008203E1B
:100F860084008313000883120313AF002C30F00093
:100F96000A128A11B4260A128A1101308312031327
:100FA600B0070318B10A0030B107333030063104F8
:100FB600031DDE2FDF2F692FB001B1010130B2070B
:100FC6000C303206031DE82FE92F692FB201692F75
:100FD6000A128A11002883133F30FD000630FE00F6
:100FE6009530FF00333084000A128A11A5260A12B2
:0A0FF6008A1183010A128A114A2FA2
:02400E00FB3F76
:00000001FF
