:060000000A128A11ED2F27
:100A7E003F308316031386040A128A1155250A1273
:100A8E008A1108003F3406345B344F3466346D34BB
:100A9E007D3407347F346F340134003483160313EE
:100AAE008801831203138801C3308316031385054F
:100ABE00C33083120313850508007E088A007F0861
:100ACE0082000A128A1164250A128A118000840A91
:100ADE0004087D0603190034FF0A0319FE0A682D67
:100AEE00F0006400831603178C187E2D7F2D782D51
:100AFE007008831203178D003F30831603178C0581
:100B0E000C14831203170C080800F1008316031748
:100B1E008C18922D932D8D2D7108831203178D0035
:100B2E0070088C003F30831603178C058312031355
:100B3E0003108B1FA32DA42DA52D03148B13831629
:100B4E0003170C1555308D00AA308D008C140C1126
:100B5E0083120313031CB42DB52DB62D8B1708006D
:100B6E00F401F50174087007F10071088400831315
:100B7E0000088312031388000430F100740AC92D93
:100B8E000310F10DFF3E031DC72D0508C339710477
:100B9E008500F201F3010130F2070318F30A003069
:100BAE00F30701307302F43003197202031CE02DB7
:100BBE00E12DD22D0130F4070318F50A0030F507A8
:100BCE0000307502043003197402031CEF2DF02D52
:100BDE00B92D0800F1007103031DF62DF72DFC2D24
:100BEE008312031306083F392C2E7108031D002EA5
:100BFE00012E2B2E013083120313C307C930430677
:100C0E00031D0A2E0B2E2B2EC3013F300605F000BE
:100C1E003F3070060319142E152E1E2E4008410467
:100C2E0003191A2E1B2E1E2EC001C101F72D3F30A7
:100C3E000605F0003F307006031D262E272E2B2EA4
:100C4E000130C0000030C1003F300800FD01FB1F25
:100C5E00312E322E392EFA09FB09FA0A0319FB0A34
:100C6E000130FD00F91F3C2E3D2E422EF809F909E8
:100C7E00F80A0319F90A780879040319472E482E41
:100C8E00752E0130FC00542E01300310F80DF90DB5
:100C9E00FF3E031D4C2E0130FC07F91F572E582E18
:100CAE004B2E79087B02031D5E2E78087A02031CF8
:100CBE00612E622E682E7808FA027908031CFB0357
:100CCE00FB0201300310F90CF80CFF3E031D692ED8
:100CDE000130FC02031D742E752E582E7D0803194B
:100CEE00792E7A2E7F2EFA09FB09FA0A0319FB0ACE
:100CFE007B08F9007A08F8000800F501F11F882E2C
:100D0E00892E902EF009F109F00A0319F10A01302B
:100D1E00F500F31F932E942E9B2EF209F309F20A7F
:100D2E000319F30A0130F506F601F7017008710494
:100D3E000319A22EA32ED82E0130F400AF2E0130AF
:100D4E000310F00DF10DFF3E031DA72E0130F40729
:100D5E00F11FB22EB32EA62E01300310F60DF70D95
:100D6E00FF3E031DB42E71087302031DC02E7008C2
:100D7E007202031CC32EC42ECB2E7008F202710811
:100D8E00031CF303F302761401300310F10CF00C84
:100D9E00FF3E031DCC2E0130F402031DD72ED82E9C
:100DAE00B32E75080319DC2EDD2EE22EF609F70997
:100DBE00F60A0319F70A7708F1007608F000080022
:100DCE000A128A113F250A128A1136308400243005
:100DDE0083120313A0000A30A10083130008A2009F
:100DEE00040AA3002008840022088000040AA00040
:100DFE0023088400A10BF42EB401B501B20100301A
:100E0E000A128A1177250A128A1183120313C2005D
:100E1E00420A031D132F142F152FC201E830F000C4
:100E2E000330F1004208A000A1012008F2002108C1
:100E3E00F3000A128A1184260A128A117008243EBF
:100E4E0084008313000883120313AE000A30F800E7
:100E5E000030F9006430F0000030F1004208A000CC
:100E6E00A1012008F2002108F3000A128A1184263B
:100E7E000A128A117108FB007008FA000A128A1110
:100E8E002D260A128A117808243E84008313000846
:100E9E0083120313AF000A30F8000030F9000A3055
:100EAE00F0000030F1004208A000A1012008F2007D
:100EBE002108F3000A128A1184260A128A11710877
:100ECE00FB007008FA000A128A112D260A128A11E6
:100EDE007808243E84008313000883120313B000A5
:100EEE000A30F8000030F9004208A000A1012008E5
:100EFE00FA002108FB000A128A112D260A128A1105
:100F0E007808243E84008313000883120313B10073
:100F1E002E30F0000A128A11B7250A128A110130FA
:100F2E000A128A11F1250A128A1183120313B300D1
:100F3E003E303306031DA42FA52FAC2F0130B4076E
:100F4E000318B50A0030B507152F3D303306031DC3
:100F5E00B12FB22FC42F3208031DB62FB72F152F66
:100F6E004208F00000300A128A118C250A128A11EA
:100F7E00013083120313B200152F3F303306031DC9
:100F8E00C92FCA2F152FB201340835040319D02FDB
:100F9E00D12FDD2F00303502323003193402031801
:100FAE00D92FDA2FDD2F0130C207E72F003035029F
:100FBE00653003193402031CE52FE62FE72FC2011B
:100FCE00B401B501152F0A128A110028831342307D
:100FDE00FD000530FE004930FF00363084000A1255
:100FEE008A1168250A128A11C30183010A128A1115
:020FFE00E72EDC
:02400E00FB3F76
:00000001FF
